:020000002528B1
:100008007E1480310B1F09280A2823284E01991CC9
:100018000E280F281A288F1C122813281A28400186
:1000280063088A0062080A0080312328191C1D28E9
:100038001E2823280F1C21282228232813287E1055
:1000480009002628B23084008530850055308600A6
:10005800003087000D30863138268031E201E30117
:10006800E401E501A0308400003085001E308631AF
:100078003E2680317E104001412841304001D400A5
:100088002030D3002830D200F630D1005D30860011
:10009800003087004C308400003085000530C200F5
:1000A80016001A00C20B542855308600003087000D
:1000B80044308400003085000830C20016001A0061
:1000C800C20B62288531D92580318B170B17063072
:1000D8004001C3001330C200AD30890B7128C20B38
:1000E8007128C30B712800328131D621803140013B
:1000F8000C197F288028B1288631502680311A3083
:100108004001C200F830890B8728C20B87280000FD
:100118004001BD01BD0AA230BE008230BF000130DF
:100128008331E023803102304001C2004208BD0023
:100138009630BE008530BF0002308331E023803125
:100148000B304001C3002630C2005D30890BAA285D
:10015800C20BAA28C30BAA28003240010C1DB528DF
:10016800B6287B288631502680311A304001C200DB
:10017800F830890BBD28C20BBD28000003304001B0
:10018800C2004208BD00F330BE008530BF00013018
:100198008331E023803102304001C2004208BD00B3
:1001A800BF30BE008530BF0002308331E02380318C
:1001B8000B304001C3002630C2005D30890BE228B5
:1001C800C20BE228C30BE22800327B28252886319F
:1001D8004A268031003A0319F228F32823290029F6
:1001E800863182268031422986317D268031422916
:1001F800863173268031422941012F08FA007A0896
:10020800F9000630A03E86008701413F8A00403F42
:100218000A008131FB00FC017C08003A031915290A
:10022800FC287B08013A0319FC28033A0319F4282F
:10023800013A0319F828073A0319FC28FC28410158
:100248003D103808FB003708FA00B70A0319B80A46
:100258007A0886007B088700010886318C26803161
:1002680001304101B9020030BA3B39083A04031D94
:100278003E293F2941290630422903300800400120
:10028800A600A701A70A41013D194B294C298C2931
:1002980040012608A50025084101B600BD103D15FE
:1002A8003D100E304001A50025084101BB00F43087
:1002B800B4000130B500BD15C030A0000630A10063
:1002C800AC01C030A2000630A300AD01C030A400CC
:1002D8000630A500AE01C030A6000630A700AF0169
:1002E800BE30A8000630A900B00191304001A3003B
:1002F8000630A4008631442681318631A926813111
:100308008531CC25813186319D2681314001A70177
:100318004001270808008631B2268131FA004101E0
:1003280037088600380887007A0881000130B70747
:100338000030B83D0130B9020030BA3B39083A0400
:100348000319A729A829AD298631952681310530B9
:10035800D529BD15B729863164268131D52986313D
:1003680069268131D5292C08FA007A08F900210874
:100378008A0020080A008131FB00FC017C08003A51
:100388000319C729B3297B08013A0319B329033A8A
:100398000319AF29013A0319AF29073A0319B329F9
:1003A800B329080000308531752581314001E50108
:1003B80065080F392038B8003808E500843143242F
:1003C80081310D304001B800FB30890BE929B80BA9
:1003D800E9290032283082314C2281311A30890BC8
:1003E800F32900320C3082314C2281311A30890BCA
:1003F800FB290032063082314C228131063040011F
:10040800B8003030890B062AB80B062A000086315E
:100418005026813186312A26813108004001BB00EF
:100428002D2A38087F3EB9003908BC00432A38080D
:10043800BF3EB9003908BC00432A3808933EB900CA
:100448003908BC00432A3808D33EB9003908BC0033
:10045800432A3B08B900BA013A08003A0319352A79
:10046800432A3908013A0319152A033A03191B2AA2
:10047800013A0319212A073A0319272A432A3C0873
:1004880082314C2282314230890B482A00320800DE
:100498004001B70086315A26823140016510F0309C
:1004A8003705B50065080F393504B6003608E5008C
:1004B8008431432482310D304001B500FB30890B73
:1004C800632AB50B632A003240013708B5000430AF
:1004D800B535890B6C2A65080F393504B60036081E
:1004E800E5008431432482310D304001B500FB30F2
:1004F800890B7C2AB50B7C2A003208008734063425
:100508001134063422340634EB3400348F34013489
:1005180031340634B2340234823406347D3406343D
:1005280078340634733406346E3406346934063449
:10053800643406345F340634673403344134633436
:100548006334653473346F342034443465346E3422
:1005580065346734613464346F3400344101BD1547
:10056800C22A863178268231E02A8631AF26823146
:100578000330E02A863173268231E02A2C08FA00FB
:100588007A08F90021088A0020080A008231FB0055
:10059800FC017C08003A0319D22ABE2A7B08013ADA
:1005A8000319BE2A033A0319B52A013A0319B52AD1
:1005B800073A0319B92ABE2A08008631AC268231C7
:1005C80041013D1CE82AE92AF72A86314A26823168
:1005D800003A0319F02AF12AF72A0F304001A00047
:1005E80020084101BB0041013B084001A000A101D6
:1005F800A035A10D8230200784008230213D85007E
:10060800013F8A00003F0A0083314001A20022080E
:100618004101BB0008004001B70086315A268331EA
:1006280040016514F0303705B50065080F39350409
:10063800B6003608E5008431432483318530890BC0
:10064800232B000040013708B5000430B535890B6D
:100658002A2B65080F393504B6003608E5008431C1
:10066800432483318530890B372B00000800400173
:10067800B00040013008813143218331003A031929
:10068800462B472B3D2B40012D08A4002C08A30026
:100698002F08A6002E08A5008431AE24833100302F
:1006A8004001A800A900AA018531A425833186311B
:1006B80055268331843102248331013A0319652B8D
:1006C800662B5E2B080041013D100230FA007A08C3
:1006D800BC00762B863178268331922B863173269F
:1006E8008331922B2E08FA007A08F9000430A03ED4
:1006F80086008701413F8A00403F0A008331FB00A2
:10070800FC017C08003A03198A2B722B7B08023AF9
:1007180003196E2B013A03196E2B722B0800400146
:10072800A7002308240403199A2B9B2BAC2B2735ED
:10073800A03E860087012308C03F2408C13F250842
:10074800A6002708AC3E8600870126088100B92B41
:100758002735A03E86008701C030C03F0630C13F24
:100768002708AC3E8600870181010800F400700864
:1007780071040319C02BC12BD22B7435A03E8600FF
:1007880087017008C03F7108C13F7208F300740800
:10079800AC3E8600870173088100DF2B7435A03ECC
:1007A80086008701C030C03F0630C13F7408AC3EA8
:1007B80086008701810108004001C1003D08C00092
:1007C8004008B800410882311222833140013E08B6
:1007D80084003F088500000883310F2383310130EE
:1007E8004001BE070030BF3D3E0884003F08850039
:1007F8001200031D002C012CEA2B08004001A40163
:10080800A40A4101BD18092C0A2C202C3D11FF30E7
:100818004001A30023084101B6008631A92684318E
:100828008631A32684318631A626843141013C08CD
:100838004001A3002308A400400124080800400147
:10084800A400A501A50A4101BD182B2C2C2C402C75
:10085800BD144001A50124080319332C342C382C6D
:100868004101BB01BB0A3D2C0230A3002308410112
:10087800BB008631A02684314001250808004001CC
:100888006508B1003108B20065156508B100310886
:10089800B30065116508B1003108B4003230AC000E
:1008A8000030AD000330AE000030AF002730833198
:1008B8003B23843108007908023E8600870101083D
:1008C800F0000030F100790886008701403FF2000F
:1008D800413FF3008531872584310030F500F6006B
:1008E800F7018531E6258431023008007908023E97
:1008F800860087010108F0000030F10079088600C1
:100908008701403FF200413FF3008531872584315C
:100918000030F500F600F7018531E6258431023014
:100928000800400198013730920003307E01B8007A
:10093800B901BA013730BB003F30BC0005307D013A
:10094800C50016307E0194001530950004307D01F5
:10095800C60008004101BD1DB22CB32CC42C4001B7
:1009680024084101B800400123084101B7004001B3
:1009780026084101BA00400125084101B900BD110E
:1009880008007908F000FF39031D0030F10001303C
:10099800F2000030F3008531872584310030F500FE
:1009A800F600F7018531E62584310430080079081E
:1009B800F000FF39031D0030F1000230F200003072
:1009C800F3008531872584310030F500F600F70102
:1009D8008531E6258431023008007908F000FF39B6
:1009E800031D0030F1000130F2000030F3008531C2
:1009F800872584310030F500F600F7018531E625BA
:100A08008431023008007908F000FF39031D0030F6
:100A1800F1000230F2000030F3008531872585317E
:100A28000030F500F600F7018531E6258531043000
:100A380008007908F000FF39031D0030F10002308A
:100A4800F2000030F3008531872585310030F5004C
:100A5800F600F7018531E62585310230080079086E
:100A6800F000FF39031D0030F1000130F2000030C2
:100A7800F3008531872585310030F500F600F70150
:100A88008531E6258531023008007908F000FF3904
:100A9800031D0030F1000130F2000030F300853111
:100AA800872585310030F500F600F7018531E62508
:100AB8008531043008007908F000FF39031D003043
:100AC800F1000230F2000030F300853187258531CE
:100AD8000030F500F600F7018531E6258531043050
:100AE80008004001B3003308B100B2013108AC007E
:100AF8003208AD000130AE000030AF004E30833117
:100B08003B23853108004101BD1D8B2D8C2D952D72
:100B18007108B8007008B7007308BA007208B90005
:100B2800BD11080049346E34693463346934613462
:100B3800203453346534733469346F346E3400347C
:100B480040012908A4002808A3002A08AB002B08A4
:100B5800A5000230833193238531080020346134A5
:100B6800643469346F3473340034003448346F3477
:100B78006C3461340034503472346F3479346534F1
:100B8800633474346F34203455344134473400347A
:100B98004301901AD02DD12DD82D8F010830900007
:100BA800910113308D009016080086311A26853180
:100BB8008631082685318431952485318531FE2595
:100BC800853108007608F1007508F0007708F8000C
:100BD8007808F20000308331BA23853108004234A6
:100BE800693465346E34763465346E34693464340B
:100BF8006F340034623051018D008F01910106304D
:100C0800930090019201080043018F010830900081
:100C1800910113308D009012080041013D14031416
:100C2800360D86318C268631053008004F01960135
:100C38009701980199019A019B01080041013D140F
:100C4800363586318C268631033008004001E5159B
:100C58006508853175258631080041013D108631CA
:100C6800B526863104300800FE0012001E00FE0B77
:100C7800392E0034640080010131890B3F2E003485
:100C880040012408E3002308E20008004301110E94
:100C9800890C890C01390800013082314C228631D7
:100CA8000800003084312324863108004230890B43
:100CB8005B2E003208004101BD10BC010E30080057
:100CC8008631992686310930080086319926863181
:100CD8000A300800863195268631053008008631AD
:100CE800B8268631003008008631BB2686310130AF
:100CF80008008631BB268631023008008631BB26C3
:100D08008631013008004101BD10BC010E300800D9
:100D1800F000700843018C0008008231E12286311E
:100D2800080043019112111608004301911611168B
:100D380008004E01191408004301111408004E015F
:100D4800191008004301901208004E010F10080006
:100D58004E010F1008004E010F14080043010C0843
:100D680008004301911508004301111508004301CB
:0C0D78009114080005300800013008004C
:020000040001F9
:0A000E00EC3FFF3F9F3FFF3FFF3F25
:00000001FF
